{
  "_format": "hh3-artifact-1",
  "contractName": "RiskFeed",
  "sourceName": "contracts/RiskFeed.sol",
  "abi": [
    {
      "inputs": [],
      "stateMutability": "nonpayable",
      "type": "constructor"
    },
    {
      "anonymous": false,
      "inputs": [
        {
          "indexed": true,
          "internalType": "address",
          "name": "protocol",
          "type": "address"
        },
        {
          "indexed": false,
          "internalType": "uint8",
          "name": "score",
          "type": "uint8"
        },
        {
          "indexed": false,
          "internalType": "enum RiskFeed.RiskCategory",
          "name": "category",
          "type": "uint8"
        },
        {
          "indexed": false,
          "internalType": "bytes32",
          "name": "explanationHash",
          "type": "bytes32"
        },
        {
          "indexed": false,
          "internalType": "uint256",
          "name": "timestamp",
          "type": "uint256"
        }
      ],
      "name": "RiskPublished",
      "type": "event"
    },
    {
      "inputs": [
        {
          "internalType": "address",
          "name": "",
          "type": "address"
        }
      ],
      "name": "latestReport",
      "outputs": [
        {
          "internalType": "uint8",
          "name": "score",
          "type": "uint8"
        },
        {
          "internalType": "enum RiskFeed.RiskCategory",
          "name": "category",
          "type": "uint8"
        },
        {
          "internalType": "bytes32",
          "name": "explanationHash",
          "type": "bytes32"
        },
        {
          "internalType": "uint256",
          "name": "timestamp",
          "type": "uint256"
        }
      ],
      "stateMutability": "view",
      "type": "function"
    },
    {
      "inputs": [],
      "name": "owner",
      "outputs": [
        {
          "internalType": "address",
          "name": "",
          "type": "address"
        }
      ],
      "stateMutability": "view",
      "type": "function"
    },
    {
      "inputs": [
        {
          "internalType": "address",
          "name": "protocol",
          "type": "address"
        },
        {
          "internalType": "uint8",
          "name": "score",
          "type": "uint8"
        },
        {
          "internalType": "enum RiskFeed.RiskCategory",
          "name": "category",
          "type": "uint8"
        },
        {
          "internalType": "bytes32",
          "name": "explanationHash",
          "type": "bytes32"
        }
      ],
      "name": "publishRisk",
      "outputs": [],
      "stateMutability": "nonpayable",
      "type": "function"
    }
  ],
  "bytecode": "0x6080604052348015600e575f5ffd5b505f80546001600160a01b0319163317905561036a8061002d5f395ff3fe608060405234801561000f575f5ffd5b506004361061003f575f3560e01c80638da5cb5b1461004357806390539f7614610072578063f9c821a714610087575b5f5ffd5b5f54610055906001600160a01b031681565b6040516001600160a01b0390911681526020015b60405180910390f35b61008561008036600461026b565b6100d2565b005b6100c26100953660046102bf565b600160208190525f918252604090912080549181015460029091015460ff80841693610100900416919084565b60405161006994939291906102f3565b5f546001600160a01b031633146101215760405162461bcd60e51b815260206004820152600e60248201526d1b9bdd08185d5d1a1bdc9a5e995960921b60448201526064015b60405180910390fd5b60648360ff1611156101655760405162461bcd60e51b815260206004820152600d60248201526c696e76616c69642073636f726560981b6044820152606401610118565b60405180608001604052808460ff16815260200183600481111561018b5761018b6102df565b81526020808201849052426040928301526001600160a01b0387165f90815260018252919091208251815460ff90911660ff19821681178355928401519192839161ffff1916176101008360048111156101e7576101e76102df565b02179055506040820151816001015560608201518160020155905050836001600160a01b03167ff726c8b97916532fa0156630c0b49e0d3351f33218505c3d32a4a3f73eb874d58484844260405161024294939291906102f3565b60405180910390a250505050565b80356001600160a01b0381168114610266575f5ffd5b919050565b5f5f5f5f6080858703121561027e575f5ffd5b61028785610250565b9350602085013560ff8116811461029c575f5ffd5b92506040850135600581106102af575f5ffd5b9396929550929360600135925050565b5f602082840312156102cf575f5ffd5b6102d882610250565b9392505050565b634e487b7160e01b5f52602160045260245ffd5b60ff85168152608081016005851061031957634e487b7160e01b5f52602160045260245ffd5b8460208301528360408301528260608301529594505050505056fea2646970667358221220f97a151d80a01a52737487925d88b7a21846b619f513772d7c937a167cacfc4164736f6c634300081c0033",
  "linkReferences": {},
  "deployedLinkReferences": {},
  "immutableReferences": {},
  "inputSourceName": "project/contracts/RiskFeed.sol",
  "buildInfoId": "solc-0_8_28-f23e7c909c9a14e58fc304aeb681a1725c09f400"
}