{
  "_format": "hh3-artifact-1",
  "contractName": "TestnetLendingPool",
  "sourceName": "contracts/TestnetLendingPool.sol",
  "abi": [
    {
      "inputs": [
        {
          "internalType": "uint256",
          "name": "initialDeposits",
          "type": "uint256"
        }
      ],
      "stateMutability": "nonpayable",
      "type": "constructor"
    },
    {
      "anonymous": false,
      "inputs": [
        {
          "indexed": false,
          "internalType": "uint256",
          "name": "deposits",
          "type": "uint256"
        },
        {
          "indexed": false,
          "internalType": "uint256",
          "name": "borrows",
          "type": "uint256"
        },
        {
          "indexed": false,
          "internalType": "uint256",
          "name": "timestamp",
          "type": "uint256"
        }
      ],
      "name": "LendingStateUpdated",
      "type": "event"
    },
    {
      "inputs": [
        {
          "internalType": "uint256",
          "name": "amount",
          "type": "uint256"
        }
      ],
      "name": "borrow",
      "outputs": [],
      "stateMutability": "nonpayable",
      "type": "function"
    },
    {
      "inputs": [
        {
          "internalType": "uint256",
          "name": "amount",
          "type": "uint256"
        }
      ],
      "name": "deposit",
      "outputs": [],
      "stateMutability": "nonpayable",
      "type": "function"
    },
    {
      "inputs": [
        {
          "internalType": "uint256",
          "name": "amount",
          "type": "uint256"
        }
      ],
      "name": "repay",
      "outputs": [],
      "stateMutability": "nonpayable",
      "type": "function"
    },
    {
      "inputs": [],
      "name": "totalBorrows",
      "outputs": [
        {
          "internalType": "uint256",
          "name": "",
          "type": "uint256"
        }
      ],
      "stateMutability": "view",
      "type": "function"
    },
    {
      "inputs": [],
      "name": "totalDeposits",
      "outputs": [
        {
          "internalType": "uint256",
          "name": "",
          "type": "uint256"
        }
      ],
      "stateMutability": "view",
      "type": "function"
    }
  ],
  "bytecode": "0x6080604052348015600e575f5ffd5b506040516102fa3803806102fa833981016040819052602b916076565b5f8190556001546040805183815260208101929092524282820152517f4ca72645dd69be86c1c4df33b1635d8bedb4b34ebaadea503bc5b45ba3a9b24c9181900360600190a150608c565b5f602082840312156085575f5ffd5b5051919050565b610261806100995f395ff3fe608060405234801561000f575f5ffd5b5060043610610055575f3560e01c8063371fd8e61461005957806347bd37181461006e5780637d88209714610089578063b6b55f2514610091578063c5ebeaec146100a4575b5f5ffd5b61006c6100673660046101d4565b6100b7565b005b61007760015481565b60405190815260200160405180910390f35b6100775f5481565b61006c61009f3660046101d4565b61015c565b61006c6100b23660046101d4565b61016c565b6001548111156100ff5760405162461bcd60e51b815260206004820152600e60248201526d0e4cae0c2f240e8dede40daeac6d60931b60448201526064015b60405180910390fd5b8060015f82825461011091906101ff565b90915550505f546001546040805192835260208301919091524282820152517f4ca72645dd69be86c1c4df33b1635d8bedb4b34ebaadea503bc5b45ba3a9b24c9181900360600190a150565b805f5f8282546101109190610218565b5f548160015461017c9190610218565b11156101c35760405162461bcd60e51b8152602060048201526016602482015275696e73756666696369656e74206c697175696469747960501b60448201526064016100f6565b8060015f8282546101109190610218565b5f602082840312156101e4575f5ffd5b5035919050565b634e487b7160e01b5f52601160045260245ffd5b81810381811115610212576102126101eb565b92915050565b80820180821115610212576102126101eb56fea2646970667358221220d3098fb0d9c6f4ad4a1b609ec6992f231f1f8b71b5fd7a8b3ac7564c2d5087c364736f6c634300081c0033",
  "linkReferences": {},
  "deployedLinkReferences": {},
  "immutableReferences": {},
  "inputSourceName": "project/contracts/TestnetLendingPool.sol",
  "buildInfoId": "solc-0_8_28-bd8ff9817f0aec75e228e71d541d5557c558fa43"
}