{
  "_format": "hh3-artifact-1",
  "contractName": "TestnetLiquidityPool",
  "sourceName": "contracts/TestnetLiquidityPool.sol",
  "abi": [
    {
      "inputs": [
        {
          "internalType": "uint256",
          "name": "initialLiquidity",
          "type": "uint256"
        }
      ],
      "stateMutability": "nonpayable",
      "type": "constructor"
    },
    {
      "anonymous": false,
      "inputs": [
        {
          "indexed": false,
          "internalType": "uint256",
          "name": "newLiquidity",
          "type": "uint256"
        },
        {
          "indexed": false,
          "internalType": "int256",
          "name": "delta",
          "type": "int256"
        },
        {
          "indexed": false,
          "internalType": "uint256",
          "name": "timestamp",
          "type": "uint256"
        }
      ],
      "name": "LiquidityUpdated",
      "type": "event"
    },
    {
      "inputs": [
        {
          "internalType": "uint256",
          "name": "amount",
          "type": "uint256"
        }
      ],
      "name": "deposit",
      "outputs": [],
      "stateMutability": "nonpayable",
      "type": "function"
    },
    {
      "inputs": [
        {
          "internalType": "int256",
          "name": "delta",
          "type": "int256"
        }
      ],
      "name": "forceShock",
      "outputs": [],
      "stateMutability": "nonpayable",
      "type": "function"
    },
    {
      "inputs": [],
      "name": "totalLiquidity",
      "outputs": [
        {
          "internalType": "uint256",
          "name": "",
          "type": "uint256"
        }
      ],
      "stateMutability": "view",
      "type": "function"
    },
    {
      "inputs": [
        {
          "internalType": "uint256",
          "name": "amount",
          "type": "uint256"
        }
      ],
      "name": "withdraw",
      "outputs": [],
      "stateMutability": "nonpayable",
      "type": "function"
    }
  ],
  "bytecode": "0x6080604052348015600e575f5ffd5b5060405161035c38038061035c833981016040819052602b916073565b5f8190556040805182815260208101839052428183015290517ff857c70a4a4ed66be82ae1ae308296923709aa5b837acfa47575d3a75c0559ee9181900360600190a1506089565b5f602082840312156082575f5ffd5b5051919050565b6102c6806100965f395ff3fe608060405234801561000f575f5ffd5b506004361061004a575f3560e01c806315770f921461004e5780632e1a7d4d146100685780639a24a6d41461007d578063b6b55f2514610090575b5f5ffd5b6100565f5481565b60405190815260200160405180910390f35b61007b61007636600461021f565b6100a3565b005b61007b61008b36600461021f565b610157565b61007b61009e36600461021f565b6101ca565b5f548111156100f25760405162461bcd60e51b8152602060048201526016602482015275696e73756666696369656e74206c697175696469747960501b60448201526064015b60405180910390fd5b805f5f828254610102919061024a565b90915550505f547ff857c70a4a4ed66be82ae1ae308296923709aa5b837acfa47575d3a75c0559ee9061013483610263565b60408051928352602083019190915242908201526060015b60405180910390a150565b5f8112156101ca575f61016982610263565b90505f548111156101ae5760405162461bcd60e51b815260206004820152600f60248201526e73686f636b20746f6f206c6172676560881b60448201526064016100e9565b805f5f8282546101be919061024a565b909155506101e0915050565b805f5f8282546101da919061027d565b90915550505b5f54604080519182526020820183905242908201527ff857c70a4a4ed66be82ae1ae308296923709aa5b837acfa47575d3a75c0559ee9060600161014c565b5f6020828403121561022f575f5ffd5b5035919050565b634e487b7160e01b5f52601160045260245ffd5b8181038181111561025d5761025d610236565b92915050565b5f600160ff1b820161027757610277610236565b505f0390565b8082018082111561025d5761025d61023656fea26469706673582212206f888167ec8341fa7d5e698dc50b496099c00fb91997df5b1c8e91399ce07adf64736f6c634300081c0033",
  "linkReferences": {},
  "deployedLinkReferences": {},
  "immutableReferences": {},
  "inputSourceName": "project/contracts/TestnetLiquidityPool.sol",
  "buildInfoId": "solc-0_8_28-beb027b017aea55d93d1fff8d113e0dc84679595"
}